:0300000002009368
:0C009300787FE4F6D8FD75810A02008633
:10007400AD071FED600B7E78EED3940040F21E8036
:01008400F784
:010085002258
:04009F007590FF2237
:10004C0020A005750901801B20A1057509028013EC
:10005C0020A205750903800B20A3057509048003F4
:08006C00E4F509AF097E002252
:10000300E50A6508600612009F85080AE508B40141
:1000130004C290802CE508B40204C2918023E50851
:10002300B4030BD2927FF4120074C292800EE508DF
:10003300B4040ED2937FF4120074C2937FF41200BF
:0900430074E508700312009F220D
:0D00860012004C8F0985090812000380F359
:00000001FF
